:100000000C942A000C9436000C945E000C9486002C
:100010000C9434000C9434000C9434000C94340090
:100020000C9434000C9434000C9434000C94340080
:100030000C9434000C9434000C9434000C94340070
:100040000C9434000C9434000C9434000C94340060
:100050000C94340011241FBECFE5D8E0DEBFCDBF25
:100060000E94AE000C94C5000C9400001F920F92E9
:100070000FB60F9211242F938F939F9382B38062B8
:1000800082BB2FEF89E698E1215080409040E1F754
:1000900000C0000082B38F7D82BB2FEF89E698E11C
:1000A000215080409040E1F700C000009F918F9167
:1000B0002F910F900FBE0F901F9018951F920F92C7
:1000C0000FB60F9211242F938F939F9382B3806466
:1000D00082BB2FEF89E698E1215080409040E1F704
:1000E00000C0000082B38F7B82BB2FEF89E698E1CE
:1000F000215080409040E1F700C000009F918F9117
:100100002F910F900FBE0F901F9018951F920F9276
:100110000FB60F9211242F938F939F9382B3806811
:1001200082BB2FEF89E698E1215080409040E1F7B3
:1001300000C0000082B38F7782BB2FEF89E698E181
:10014000215080409040E1F700C000009F918F91C6
:100150002F910F900FBE0F901F90189581B3806262
:1001600081BB81B3806481BB81B3806881BB78949B
:1001700085B7816085BF85B78C6085BF84B78F7B6D
:0E01800084BF8BB7806E8BBFFFCFF894FFCF8C
:00000001FF
